{
  "_format": "hh-sol-artifact-1",
  "contractName": "PaintNFT",
  "sourceName": "contracts/nft_contract.sol",
  "abi": [
    {
      "inputs": [
        {
          "internalType": "string",
          "name": "_name",
          "type": "string"
        },
        {
          "internalType": "string",
          "name": "_symbol",
          "type": "string"
        }
      ],
      "stateMutability": "nonpayable",
      "type": "constructor"
    },
    {
      "anonymous": false,
      "inputs": [
        {
          "indexed": true,
          "internalType": "address",
          "name": "owner",
          "type": "address"
        },
        {
          "indexed": true,
          "internalType": "address",
          "name": "approved",
          "type": "address"
        },
        {
          "indexed": true,
          "internalType": "uint256",
          "name": "tokenId",
          "type": "uint256"
        }
      ],
      "name": "Approval",
      "type": "event"
    },
    {
      "anonymous": false,
      "inputs": [
        {
          "indexed": true,
          "internalType": "address",
          "name": "owner",
          "type": "address"
        },
        {
          "indexed": true,
          "internalType": "address",
          "name": "operator",
          "type": "address"
        },
        {
          "indexed": false,
          "internalType": "bool",
          "name": "approved",
          "type": "bool"
        }
      ],
      "name": "ApprovalForAll",
      "type": "event"
    },
    {
      "anonymous": false,
      "inputs": [
        {
          "indexed": true,
          "internalType": "address",
          "name": "previousOwner",
          "type": "address"
        },
        {
          "indexed": true,
          "internalType": "address",
          "name": "newOwner",
          "type": "address"
        }
      ],
      "name": "OwnershipTransferred",
      "type": "event"
    },
    {
      "anonymous": false,
      "inputs": [
        {
          "indexed": true,
          "internalType": "address",
          "name": "from",
          "type": "address"
        },
        {
          "indexed": true,
          "internalType": "address",
          "name": "to",
          "type": "address"
        },
        {
          "indexed": true,
          "internalType": "uint256",
          "name": "tokenId",
          "type": "uint256"
        }
      ],
      "name": "Transfer",
      "type": "event"
    },
    {
      "inputs": [
        {
          "internalType": "uint256",
          "name": "",
          "type": "uint256"
        }
      ],
      "name": "Items",
      "outputs": [
        {
          "internalType": "uint256",
          "name": "id",
          "type": "uint256"
        },
        {
          "internalType": "address",
          "name": "creator",
          "type": "address"
        },
        {
          "internalType": "string",
          "name": "uri",
          "type": "string"
        }
      ],
      "stateMutability": "view",
      "type": "function"
    },
    {
      "inputs": [
        {
          "internalType": "address",
          "name": "to",
          "type": "address"
        },
        {
          "internalType": "uint256",
          "name": "tokenId",
          "type": "uint256"
        }
      ],
      "name": "approve",
      "outputs": [],
      "stateMutability": "nonpayable",
      "type": "function"
    },
    {
      "inputs": [
        {
          "internalType": "address",
          "name": "owner",
          "type": "address"
        }
      ],
      "name": "balanceOf",
      "outputs": [
        {
          "internalType": "uint256",
          "name": "",
          "type": "uint256"
        }
      ],
      "stateMutability": "view",
      "type": "function"
    },
    {
      "inputs": [
        {
          "internalType": "uint256",
          "name": "tokenId",
          "type": "uint256"
        },
        {
          "internalType": "uint256",
          "name": "newItemId",
          "type": "uint256"
        }
      ],
      "name": "contractURI",
      "outputs": [
        {
          "internalType": "string",
          "name": "",
          "type": "string"
        }
      ],
      "stateMutability": "view",
      "type": "function"
    },
    {
      "inputs": [],
      "name": "description",
      "outputs": [
        {
          "internalType": "string",
          "name": "",
          "type": "string"
        }
      ],
      "stateMutability": "view",
      "type": "function"
    },
    {
      "inputs": [
        {
          "internalType": "uint256",
          "name": "tokenId",
          "type": "uint256"
        }
      ],
      "name": "getApproved",
      "outputs": [
        {
          "internalType": "address",
          "name": "",
          "type": "address"
        }
      ],
      "stateMutability": "view",
      "type": "function"
    },
    {
      "inputs": [
        {
          "internalType": "address",
          "name": "owner",
          "type": "address"
        },
        {
          "internalType": "address",
          "name": "operator",
          "type": "address"
        }
      ],
      "name": "isApprovedForAll",
      "outputs": [
        {
          "internalType": "bool",
          "name": "",
          "type": "bool"
        }
      ],
      "stateMutability": "view",
      "type": "function"
    },
    {
      "inputs": [
        {
          "internalType": "address",
          "name": "minter",
          "type": "address"
        },
        {
          "internalType": "string",
          "name": "uri",
          "type": "string"
        }
      ],
      "name": "mintItem",
      "outputs": [
        {
          "internalType": "uint256",
          "name": "",
          "type": "uint256"
        }
      ],
      "stateMutability": "nonpayable",
      "type": "function"
    },
    {
      "inputs": [],
      "name": "name",
      "outputs": [
        {
          "internalType": "string",
          "name": "",
          "type": "string"
        }
      ],
      "stateMutability": "view",
      "type": "function"
    },
    {
      "inputs": [],
      "name": "owner",
      "outputs": [
        {
          "internalType": "address",
          "name": "",
          "type": "address"
        }
      ],
      "stateMutability": "view",
      "type": "function"
    },
    {
      "inputs": [
        {
          "internalType": "uint256",
          "name": "tokenId",
          "type": "uint256"
        }
      ],
      "name": "ownerOf",
      "outputs": [
        {
          "internalType": "address",
          "name": "",
          "type": "address"
        }
      ],
      "stateMutability": "view",
      "type": "function"
    },
    {
      "inputs": [],
      "name": "renounceOwnership",
      "outputs": [],
      "stateMutability": "nonpayable",
      "type": "function"
    },
    {
      "inputs": [
        {
          "internalType": "address",
          "name": "from",
          "type": "address"
        },
        {
          "internalType": "address",
          "name": "to",
          "type": "address"
        },
        {
          "internalType": "uint256",
          "name": "tokenId",
          "type": "uint256"
        }
      ],
      "name": "safeTransferFrom",
      "outputs": [],
      "stateMutability": "nonpayable",
      "type": "function"
    },
    {
      "inputs": [
        {
          "internalType": "address",
          "name": "from",
          "type": "address"
        },
        {
          "internalType": "address",
          "name": "to",
          "type": "address"
        },
        {
          "internalType": "uint256",
          "name": "tokenId",
          "type": "uint256"
        },
        {
          "internalType": "bytes",
          "name": "_data",
          "type": "bytes"
        }
      ],
      "name": "safeTransferFrom",
      "outputs": [],
      "stateMutability": "nonpayable",
      "type": "function"
    },
    {
      "inputs": [
        {
          "internalType": "address",
          "name": "operator",
          "type": "address"
        },
        {
          "internalType": "bool",
          "name": "approved",
          "type": "bool"
        }
      ],
      "name": "setApprovalForAll",
      "outputs": [],
      "stateMutability": "nonpayable",
      "type": "function"
    },
    {
      "inputs": [
        {
          "internalType": "bytes4",
          "name": "interfaceId",
          "type": "bytes4"
        }
      ],
      "name": "supportsInterface",
      "outputs": [
        {
          "internalType": "bool",
          "name": "",
          "type": "bool"
        }
      ],
      "stateMutability": "view",
      "type": "function"
    },
    {
      "inputs": [],
      "name": "symbol",
      "outputs": [
        {
          "internalType": "string",
          "name": "",
          "type": "string"
        }
      ],
      "stateMutability": "view",
      "type": "function"
    },
    {
      "inputs": [
        {
          "internalType": "uint256",
          "name": "tokenId",
          "type": "uint256"
        },
        {
          "internalType": "uint256",
          "name": "newItemId",
          "type": "uint256"
        }
      ],
      "name": "tokenURI",
      "outputs": [
        {
          "internalType": "string",
          "name": "",
          "type": "string"
        }
      ],
      "stateMutability": "view",
      "type": "function"
    },
    {
      "inputs": [
        {
          "internalType": "uint256",
          "name": "tokenId",
          "type": "uint256"
        }
      ],
      "name": "tokenURI",
      "outputs": [
        {
          "internalType": "string",
          "name": "",
          "type": "string"
        }
      ],
      "stateMutability": "view",
      "type": "function"
    },
    {
      "inputs": [],
      "name": "totalSupply",
      "outputs": [
        {
          "internalType": "uint256",
          "name": "",
          "type": "uint256"
        }
      ],
      "stateMutability": "view",
      "type": "function"
    },
    {
      "inputs": [
        {
          "internalType": "address",
          "name": "from",
          "type": "address"
        },
        {
          "internalType": "address",
          "name": "to",
          "type": "address"
        },
        {
          "internalType": "uint256",
          "name": "tokenId",
          "type": "uint256"
        }
      ],
      "name": "transferFrom",
      "outputs": [],
      "stateMutability": "nonpayable",
      "type": "function"
    },
    {
      "inputs": [
        {
          "internalType": "address",
          "name": "newOwner",
          "type": "address"
        }
      ],
      "name": "transferOwnership",
      "outputs": [],
      "stateMutability": "nonpayable",
      "type": "function"
    }
  ],
  "bytecode": "0x60806040526040518060400160405280600c81526020017f4e46542773206f662044657600000000000000000000000000000000000000008152506009908051906020019062000051929190620001b1565b503480156200005f57600080fd5b5060405162003a3638038062003a368339818101604052810190620000859190620002d3565b818181600090805190602001906200009f929190620001b1565b508060019080519060200190620000b8929190620001b1565b505050620000db620000cf620000e360201b60201c565b620000eb60201b60201c565b5050620004b6565b600033905090565b6000600760009054906101000a900473ffffffffffffffffffffffffffffffffffffffff16905081600760006101000a81548173ffffffffffffffffffffffffffffffffffffffff021916908373ffffffffffffffffffffffffffffffffffffffff1602179055508173ffffffffffffffffffffffffffffffffffffffff168173ffffffffffffffffffffffffffffffffffffffff167f8be0079c531659141344cd1fd0a4f28419497f9722a3daafe3b4186f6b6457e060405160405180910390a35050565b828054620001bf90620003db565b90600052602060002090601f016020900481019282620001e357600085556200022f565b82601f10620001fe57805160ff19168380011785556200022f565b828001600101855582156200022f579182015b828111156200022e57825182559160200191906001019062000211565b5b5090506200023e919062000242565b5090565b5b808211156200025d57600081600090555060010162000243565b5090565b60006200027862000272846200036f565b62000346565b9050828152602081018484840111156200029157600080fd5b6200029e848285620003a5565b509392505050565b600082601f830112620002b857600080fd5b8151620002ca84826020860162000261565b91505092915050565b60008060408385031215620002e757600080fd5b600083015167ffffffffffffffff8111156200030257600080fd5b6200031085828601620002a6565b925050602083015167ffffffffffffffff8111156200032e57600080fd5b6200033c85828601620002a6565b9150509250929050565b60006200035262000365565b905062000360828262000411565b919050565b6000604051905090565b600067ffffffffffffffff8211156200038d576200038c62000476565b5b6200039882620004a5565b9050602081019050919050565b60005b83811015620003c5578082015181840152602081019050620003a8565b83811115620003d5576000848401525b50505050565b60006002820490506001821680620003f457607f821691505b602082108114156200040b576200040a62000447565b5b50919050565b6200041c82620004a5565b810181811067ffffffffffffffff821117156200043e576200043d62000476565b5b80604052505050565b7f4e487b7100000000000000000000000000000000000000000000000000000000600052602260045260246000fd5b7f4e487b7100000000000000000000000000000000000000000000000000000000600052604160045260246000fd5b6000601f19601f8301169050919050565b61357080620004c66000396000f3fe608060405234801561001057600080fd5b50600436106101425760003560e01c806370a08231116100b857806395d89b411161007c57806395d89b411461039f578063a22cb465146103bd578063b88d4fde146103d9578063c87b56dd146103f5578063e985e9c514610425578063f2fde38b1461045557610142565b806370a08231146102f9578063715018a6146103295780637284e416146103335780638da5cb5b1461035157806392cb829d1461036f57610142565b806317b47cc41161010a57806317b47cc41461021157806318160ddd146102435780631c2a334b1461026157806323b872dd1461029157806342842e0e146102ad5780636352211e146102c957610142565b806301ffc9a71461014757806306fdde0314610177578063081812fc14610195578063095ea7b3146101c5578063110bcd45146101e1575b600080fd5b610161600480360381019061015c91906124a5565b610471565b60405161016e919061292d565b60405180910390f35b61017f610553565b60405161018c9190612948565b60405180910390f35b6101af60048036038101906101aa91906124f7565b6105e5565b6040516101bc91906128c6565b60405180910390f35b6101df60048036038101906101da9190612469565b61066a565b005b6101fb60048036038101906101f69190612415565b610782565b6040516102089190612baa565b60405180910390f35b61022b600480360381019061022691906124f7565b6108eb565b60405161023a93929190612bc5565b60405180910390f35b61024b6109bd565b6040516102589190612baa565b60405180910390f35b61027b60048036038101906102769190612520565b6109ce565b6040516102889190612948565b60405180910390f35b6102ab60048036038101906102a6919061230f565b610abf565b005b6102c760048036038101906102c2919061230f565b610b1f565b005b6102e360048036038101906102de91906124f7565b610b3f565b6040516102f091906128c6565b60405180910390f35b610313600480360381019061030e91906122aa565b610bf1565b6040516103209190612baa565b60405180910390f35b610331610ca9565b005b61033b610d31565b6040516103489190612948565b60405180910390f35b610359610dbf565b60405161036691906128c6565b60405180910390f35b61038960048036038101906103849190612520565b610de9565b6040516103969190612948565b60405180910390f35b6103a7610eda565b6040516103b49190612948565b60405180910390f35b6103d760048036038101906103d291906123d9565b610f6c565b005b6103f360048036038101906103ee919061235e565b610f82565b005b61040f600480360381019061040a91906124f7565b610fe4565b60405161041c9190612948565b60405180910390f35b61043f600480360381019061043a91906122d3565b611136565b60405161044c919061292d565b60405180910390f35b61046f600480360381019061046a91906122aa565b6111ca565b005b60007f80ac58cd000000000000000000000000000000000000000000000000000000007bffffffffffffffffffffffffffffffffffffffffffffffffffffffff1916827bffffffffffffffffffffffffffffffffffffffffffffffffffffffff1916148061053c57507f5b5e139f000000000000000000000000000000000000000000000000000000007bffffffffffffffffffffffffffffffffffffffffffffffffffffffff1916827bffffffffffffffffffffffffffffffffffffffffffffffffffffffff1916145b8061054c575061054b826112c2565b5b9050919050565b60606000805461056290612e3e565b80601f016020809104026020016040519081016040528092919081815260200182805461058e90612e3e565b80156105db5780601f106105b0576101008083540402835291602001916105db565b820191906000526020600020905b8154815290600101906020018083116105be57829003601f168201915b5050505050905090565b60006105f08261132c565b61062f576040517f08c379a000000000000000000000000000000000000000000000000000000000815260040161062690612b0a565b60405180910390fd5b6004600083815260200190815260200160002060009054906101000a900473ffffffffffffffffffffffffffffffffffffffff169050919050565b600061067582610b3f565b90508073ffffffffffffffffffffffffffffffffffffffff168373ffffffffffffffffffffffffffffffffffffffff1614156106e6576040517f08c379a00000000000000000000000000000000000000000000000000000000081526004016106dd90612b6a565b60405180910390fd5b8073ffffffffffffffffffffffffffffffffffffffff16610705611398565b73ffffffffffffffffffffffffffffffffffffffff16148061073457506107338161072e611398565b611136565b5b610773576040517f08c379a000000000000000000000000000000000000000000000000000000000815260040161076a90612a4a565b60405180910390fd5b61077d83836113a0565b505050565b600061078c611398565b73ffffffffffffffffffffffffffffffffffffffff166107aa610dbf565b73ffffffffffffffffffffffffffffffffffffffff1614610800576040517f08c379a00000000000000000000000000000000000000000000000000000000081526004016107f790612b2a565b60405180910390fd5b61080a6008611459565b6000610816600861146f565b9050610822848261147d565b61082c8184611657565b60405180606001604052808281526020013373ffffffffffffffffffffffffffffffffffffffff16815260200184815250600a60008381526020019081526020016000206000820151816000015560208201518160010160006101000a81548173ffffffffffffffffffffffffffffffffffffffff021916908373ffffffffffffffffffffffffffffffffffffffff16021790555060408201518160020190805190602001906108dd9291906120ce565b509050508091505092915050565b600a6020528060005260406000206000915090508060000154908060010160009054906101000a900473ffffffffffffffffffffffffffffffffffffffff169080600201805461093a90612e3e565b80601f016020809104026020016040519081016040528092919081815260200182805461096690612e3e565b80156109b35780601f10610988576101008083540402835291602001916109b3565b820191906000526020600020905b81548152906001019060200180831161099657829003601f168201915b5050505050905083565b60006109c9600861146f565b905090565b60606109d98361132c565b610a18576040517f08c379a0000000000000000000000000000000000000000000000000000000008152600401610a0f90612b4a565b60405180910390fd5b600a60008381526020019081526020016000206002018054610a3990612e3e565b80601f0160208091040260200160405190810160405280929190818152602001828054610a6590612e3e565b8015610ab25780601f10610a8757610100808354040283529160200191610ab2565b820191906000526020600020905b815481529060010190602001808311610a9557829003601f168201915b5050505050905092915050565b610ad0610aca611398565b826116cb565b610b0f576040517f08c379a0000000000000000000000000000000000000000000000000000000008152600401610b0690612b8a565b60405180910390fd5b610b1a8383836117a9565b505050565b610b3a83838360405180602001604052806000815250610f82565b505050565b6000806002600084815260200190815260200160002060009054906101000a900473ffffffffffffffffffffffffffffffffffffffff169050600073ffffffffffffffffffffffffffffffffffffffff168173ffffffffffffffffffffffffffffffffffffffff161415610be8576040517f08c379a0000000000000000000000000000000000000000000000000000000008152600401610bdf90612a8a565b60405180910390fd5b80915050919050565b60008073ffffffffffffffffffffffffffffffffffffffff168273ffffffffffffffffffffffffffffffffffffffff161415610c62576040517f08c379a0000000000000000000000000000000000000000000000000000000008152600401610c5990612a6a565b60405180910390fd5b600360008373ffffffffffffffffffffffffffffffffffffffff1673ffffffffffffffffffffffffffffffffffffffff168152602001908152602001600020549050919050565b610cb1611398565b73ffffffffffffffffffffffffffffffffffffffff16610ccf610dbf565b73ffffffffffffffffffffffffffffffffffffffff1614610d25576040517f08c379a0000000000000000000000000000000000000000000000000000000008152600401610d1c90612b2a565b60405180910390fd5b610d2f6000611a10565b565b60098054610d3e90612e3e565b80601f0160208091040260200160405190810160405280929190818152602001828054610d6a90612e3e565b8015610db75780601f10610d8c57610100808354040283529160200191610db7565b820191906000526020600020905b815481529060010190602001808311610d9a57829003601f168201915b505050505081565b6000600760009054906101000a900473ffffffffffffffffffffffffffffffffffffffff16905090565b6060610df48361132c565b610e33576040517f08c379a0000000000000000000000000000000000000000000000000000000008152600401610e2a90612b4a565b60405180910390fd5b600a60008381526020019081526020016000206002018054610e5490612e3e565b80601f0160208091040260200160405190810160405280929190818152602001828054610e8090612e3e565b8015610ecd5780601f10610ea257610100808354040283529160200191610ecd565b820191906000526020600020905b815481529060010190602001808311610eb057829003601f168201915b5050505050905092915050565b606060018054610ee990612e3e565b80601f0160208091040260200160405190810160405280929190818152602001828054610f1590612e3e565b8015610f625780601f10610f3757610100808354040283529160200191610f62565b820191906000526020600020905b815481529060010190602001808311610f4557829003601f168201915b5050505050905090565b610f7e610f77611398565b8383611ad6565b5050565b610f93610f8d611398565b836116cb565b610fd2576040517f08c379a0000000000000000000000000000000000000000000000000000000008152600401610fc990612b8a565b60405180910390fd5b610fde84848484611c43565b50505050565b6060610fef8261132c565b61102e576040517f08c379a000000000000000000000000000000000000000000000000000000000815260040161102590612aea565b60405180910390fd5b600060066000848152602001908152602001600020805461104e90612e3e565b80601f016020809104026020016040519081016040528092919081815260200182805461107a90612e3e565b80156110c75780601f1061109c576101008083540402835291602001916110c7565b820191906000526020600020905b8154815290600101906020018083116110aa57829003601f168201915b5050505050905060006110d8611c9f565b90506000815114156110ee578192505050611131565b60008251111561112357808260405160200161110b9291906128a2565b60405160208183030381529060405292505050611131565b61112c84611cb6565b925050505b919050565b6000600560008473ffffffffffffffffffffffffffffffffffffffff1673ffffffffffffffffffffffffffffffffffffffff16815260200190815260200160002060008373ffffffffffffffffffffffffffffffffffffffff1673ffffffffffffffffffffffffffffffffffffffff16815260200190815260200160002060009054906101000a900460ff16905092915050565b6111d2611398565b73ffffffffffffffffffffffffffffffffffffffff166111f0610dbf565b73ffffffffffffffffffffffffffffffffffffffff1614611246576040517f08c379a000000000000000000000000000000000000000000000000000000000815260040161123d90612b2a565b60405180910390fd5b600073ffffffffffffffffffffffffffffffffffffffff168173ffffffffffffffffffffffffffffffffffffffff1614156112b6576040517f08c379a00000000000000000000000000000000000000000000000000000000081526004016112ad9061298a565b60405180910390fd5b6112bf81611a10565b50565b60007f01ffc9a7000000000000000000000000000000000000000000000000000000007bffffffffffffffffffffffffffffffffffffffffffffffffffffffff1916827bffffffffffffffffffffffffffffffffffffffffffffffffffffffff1916149050919050565b60008073ffffffffffffffffffffffffffffffffffffffff166002600084815260200190815260200160002060009054906101000a900473ffffffffffffffffffffffffffffffffffffffff1673ffffffffffffffffffffffffffffffffffffffff1614159050919050565b600033905090565b816004600083815260200190815260200160002060006101000a81548173ffffffffffffffffffffffffffffffffffffffff021916908373ffffffffffffffffffffffffffffffffffffffff160217905550808273ffffffffffffffffffffffffffffffffffffffff1661141383610b3f565b73ffffffffffffffffffffffffffffffffffffffff167f8c5be1e5ebec7d5bd14f71427d1e84f3dd0314c0f7b2291e5b200ac8c7c3b92560405160405180910390a45050565b6001816000016000828254019250508190555050565b600081600001549050919050565b600073ffffffffffffffffffffffffffffffffffffffff168273ffffffffffffffffffffffffffffffffffffffff1614156114ed576040517f08c379a00000000000000000000000000000000000000000000000000000000081526004016114e490612aca565b60405180910390fd5b6114f68161132c565b15611536576040517f08c379a000000000000000000000000000000000000000000000000000000000815260040161152d906129ca565b60405180910390fd5b61154260008383611d5d565b6001600360008473ffffffffffffffffffffffffffffffffffffffff1673ffffffffffffffffffffffffffffffffffffffff16815260200190815260200160002060008282546115929190612ccd565b92505081905550816002600083815260200190815260200160002060006101000a81548173ffffffffffffffffffffffffffffffffffffffff021916908373ffffffffffffffffffffffffffffffffffffffff160217905550808273ffffffffffffffffffffffffffffffffffffffff16600073ffffffffffffffffffffffffffffffffffffffff167fddf252ad1be2c89b69c2b068fc378daa952ba7f163c4a11628f55a4df523b3ef60405160405180910390a461165360008383611d62565b5050565b6116608261132c565b61169f576040517f08c379a000000000000000000000000000000000000000000000000000000000815260040161169690612aaa565b60405180910390fd5b806006600084815260200190815260200160002090805190602001906116c69291906120ce565b505050565b60006116d68261132c565b611715576040517f08c379a000000000000000000000000000000000000000000000000000000000815260040161170c90612a2a565b60405180910390fd5b600061172083610b3f565b90508073ffffffffffffffffffffffffffffffffffffffff168473ffffffffffffffffffffffffffffffffffffffff16148061178f57508373ffffffffffffffffffffffffffffffffffffffff16611777846105e5565b73ffffffffffffffffffffffffffffffffffffffff16145b806117a0575061179f8185611136565b5b91505092915050565b8273ffffffffffffffffffffffffffffffffffffffff166117c982610b3f565b73ffffffffffffffffffffffffffffffffffffffff161461181f576040517f08c379a0000000000000000000000000000000000000000000000000000000008152600401611816906129aa565b60405180910390fd5b600073ffffffffffffffffffffffffffffffffffffffff168273ffffffffffffffffffffffffffffffffffffffff16141561188f576040517f08c379a0000000000000000000000000000000000000000000000000000000008152600401611886906129ea565b60405180910390fd5b61189a838383611d5d565b6118a56000826113a0565b6001600360008573ffffffffffffffffffffffffffffffffffffffff1673ffffffffffffffffffffffffffffffffffffffff16815260200190815260200160002060008282546118f59190612d54565b925050819055506001600360008473ffffffffffffffffffffffffffffffffffffffff1673ffffffffffffffffffffffffffffffffffffffff168152602001908152602001600020600082825461194c9190612ccd565b92505081905550816002600083815260200190815260200160002060006101000a81548173ffffffffffffffffffffffffffffffffffffffff021916908373ffffffffffffffffffffffffffffffffffffffff160217905550808273ffffffffffffffffffffffffffffffffffffffff168473ffffffffffffffffffffffffffffffffffffffff167fddf252ad1be2c89b69c2b068fc378daa952ba7f163c4a11628f55a4df523b3ef60405160405180910390a4611a0b838383611d62565b505050565b6000600760009054906101000a900473ffffffffffffffffffffffffffffffffffffffff16905081600760006101000a81548173ffffffffffffffffffffffffffffffffffffffff021916908373ffffffffffffffffffffffffffffffffffffffff1602179055508173ffffffffffffffffffffffffffffffffffffffff168173ffffffffffffffffffffffffffffffffffffffff167f8be0079c531659141344cd1fd0a4f28419497f9722a3daafe3b4186f6b6457e060405160405180910390a35050565b8173ffffffffffffffffffffffffffffffffffffffff168373ffffffffffffffffffffffffffffffffffffffff161415611b45576040517f08c379a0000000000000000000000000000000000000000000000000000000008152600401611b3c90612a0a565b60405180910390fd5b80600560008573ffffffffffffffffffffffffffffffffffffffff1673ffffffffffffffffffffffffffffffffffffffff16815260200190815260200160002060008473ffffffffffffffffffffffffffffffffffffffff1673ffffffffffffffffffffffffffffffffffffffff16815260200190815260200160002060006101000a81548160ff0219169083151502179055508173ffffffffffffffffffffffffffffffffffffffff168373ffffffffffffffffffffffffffffffffffffffff167f17307eab39ab6107e8899845ad3d59bd9653f200f220920489ca2b5937696c3183604051611c36919061292d565b60405180910390a3505050565b611c4e8484846117a9565b611c5a84848484611d67565b611c99576040517f08c379a0000000000000000000000000000000000000000000000000000000008152600401611c909061296a565b60405180910390fd5b50505050565b606060405180602001604052806000815250905090565b6060611cc18261132c565b611d00576040517f08c379a0000000000000000000000000000000000000000000000000000000008152600401611cf790612b4a565b60405180910390fd5b6000611d0a611c9f565b90506000815111611d2a5760405180602001604052806000815250611d55565b80611d3484611efe565b604051602001611d459291906128a2565b6040516020818303038152906040525b915050919050565b505050565b505050565b6000611d888473ffffffffffffffffffffffffffffffffffffffff166120ab565b15611ef1578373ffffffffffffffffffffffffffffffffffffffff1663150b7a02611db1611398565b8786866040518563ffffffff1660e01b8152600401611dd394939291906128e1565b602060405180830381600087803b158015611ded57600080fd5b505af1925050508015611e1e57506040513d601f19601f82011682018060405250810190611e1b91906124ce565b60015b611ea1573d8060008114611e4e576040519150601f19603f3d011682016040523d82523d6000602084013e611e53565b606091505b50600081511415611e99576040517f08c379a0000000000000000000000000000000000000000000000000000000008152600401611e909061296a565b60405180910390fd5b805181602001fd5b63150b7a0260e01b7bffffffffffffffffffffffffffffffffffffffffffffffffffffffff1916817bffffffffffffffffffffffffffffffffffffffffffffffffffffffff191614915050611ef6565b600190505b949350505050565b60606000821415611f46576040518060400160405280600181526020017f300000000000000000000000000000000000000000000000000000000000000081525090506120a6565b600082905060005b60008214611f78578080611f6190612ea1565b915050600a82611f719190612d23565b9150611f4e565b60008167ffffffffffffffff811115611fba577f4e487b7100000000000000000000000000000000000000000000000000000000600052604160045260246000fd5b6040519080825280601f01601f191660200182016040528015611fec5781602001600182028036833780820191505090505b5090505b6000851461209f576001826120059190612d54565b9150600a856120149190612eea565b60306120209190612ccd565b60f81b81838151811061205c577f4e487b7100000000000000000000000000000000000000000000000000000000600052603260045260246000fd5b60200101907effffffffffffffffffffffffffffffffffffffffffffffffffffffffffffff1916908160001a905350600a856120989190612d23565b9450611ff0565b8093505050505b919050565b6000808273ffffffffffffffffffffffffffffffffffffffff163b119050919050565b8280546120da90612e3e565b90600052602060002090601f0160209004810192826120fc5760008555612143565b82601f1061211557805160ff1916838001178555612143565b82800160010185558215612143579182015b82811115612142578251825591602001919060010190612127565b5b5090506121509190612154565b5090565b5b8082111561216d576000816000905550600101612155565b5090565b600061218461217f84612c28565b612c03565b90508281526020810184848401111561219c57600080fd5b6121a7848285612dfc565b509392505050565b60006121c26121bd84612c59565b612c03565b9050828152602081018484840111156121da57600080fd5b6121e5848285612dfc565b509392505050565b6000813590506121fc816134de565b92915050565b600081359050612211816134f5565b92915050565b6000813590506122268161350c565b92915050565b60008151905061223b8161350c565b92915050565b600082601f83011261225257600080fd5b8135612262848260208601612171565b91505092915050565b600082601f83011261227c57600080fd5b813561228c8482602086016121af565b91505092915050565b6000813590506122a481613523565b92915050565b6000602082840312156122bc57600080fd5b60006122ca848285016121ed565b91505092915050565b600080604083850312156122e657600080fd5b60006122f4858286016121ed565b9250506020612305858286016121ed565b9150509250929050565b60008060006060848603121561232457600080fd5b6000612332868287016121ed565b9350506020612343868287016121ed565b925050604061235486828701612295565b9150509250925092565b6000806000806080858703121561237457600080fd5b6000612382878288016121ed565b9450506020612393878288016121ed565b93505060406123a487828801612295565b925050606085013567ffffffffffffffff8111156123c157600080fd5b6123cd87828801612241565b91505092959194509250565b600080604083850312156123ec57600080fd5b60006123fa858286016121ed565b925050602061240b85828601612202565b9150509250929050565b6000806040838503121561242857600080fd5b6000612436858286016121ed565b925050602083013567ffffffffffffffff81111561245357600080fd5b61245f8582860161226b565b9150509250929050565b6000806040838503121561247c57600080fd5b600061248a858286016121ed565b925050602061249b85828601612295565b9150509250929050565b6000602082840312156124b757600080fd5b60006124c584828501612217565b91505092915050565b6000602082840312156124e057600080fd5b60006124ee8482850161222c565b91505092915050565b60006020828403121561250957600080fd5b600061251784828501612295565b91505092915050565b6000806040838503121561253357600080fd5b600061254185828601612295565b925050602061255285828601612295565b9150509250929050565b61256581612d88565b82525050565b61257481612d9a565b82525050565b600061258582612c8a565b61258f8185612ca0565b935061259f818560208601612e0b565b6125a881612fd7565b840191505092915050565b60006125be82612c95565b6125c88185612cb1565b93506125d8818560208601612e0b565b6125e181612fd7565b840191505092915050565b60006125f782612c95565b6126018185612cc2565b9350612611818560208601612e0b565b80840191505092915050565b600061262a603283612cb1565b915061263582612fe8565b604082019050919050565b600061264d602683612cb1565b915061265882613037565b604082019050919050565b6000612670602583612cb1565b915061267b82613086565b604082019050919050565b6000612693601c83612cb1565b915061269e826130d5565b602082019050919050565b60006126b6602483612cb1565b91506126c1826130fe565b604082019050919050565b60006126d9601983612cb1565b91506126e48261314d565b602082019050919050565b60006126fc602c83612cb1565b915061270782613176565b604082019050919050565b600061271f603883612cb1565b915061272a826131c5565b604082019050919050565b6000612742602a83612cb1565b915061274d82613214565b604082019050919050565b6000612765602983612cb1565b915061277082613263565b604082019050919050565b6000612788602e83612cb1565b9150612793826132b2565b604082019050919050565b60006127ab602083612cb1565b91506127b682613301565b602082019050919050565b60006127ce603183612cb1565b91506127d98261332a565b604082019050919050565b60006127f1602c83612cb1565b91506127fc82613379565b604082019050919050565b6000612814602083612cb1565b915061281f826133c8565b602082019050919050565b6000612837602f83612cb1565b9150612842826133f1565b604082019050919050565b600061285a602183612cb1565b915061286582613440565b604082019050919050565b600061287d603183612cb1565b91506128888261348f565b604082019050919050565b61289c81612df2565b82525050565b60006128ae82856125ec565b91506128ba82846125ec565b91508190509392505050565b60006020820190506128db600083018461255c565b92915050565b60006080820190506128f6600083018761255c565b612903602083018661255c565b6129106040830185612893565b8181036060830152612922818461257a565b905095945050505050565b6000602082019050612942600083018461256b565b92915050565b6000602082019050818103600083015261296281846125b3565b905092915050565b600060208201905081810360008301526129838161261d565b9050919050565b600060208201905081810360008301526129a381612640565b9050919050565b600060208201905081810360008301526129c381612663565b9050919050565b600060208201905081810360008301526129e381612686565b9050919050565b60006020820190508181036000830152612a03816126a9565b9050919050565b60006020820190508181036000830152612a23816126cc565b9050919050565b60006020820190508181036000830152612a43816126ef565b9050919050565b60006020820190508181036000830152612a6381612712565b9050919050565b60006020820190508181036000830152612a8381612735565b9050919050565b60006020820190508181036000830152612aa381612758565b9050919050565b60006020820190508181036000830152612ac38161277b565b9050919050565b60006020820190508181036000830152612ae38161279e565b9050919050565b60006020820190508181036000830152612b03816127c1565b9050919050565b60006020820190508181036000830152612b23816127e4565b9050919050565b60006020820190508181036000830152612b4381612807565b9050919050565b60006020820190508181036000830152612b638161282a565b9050919050565b60006020820190508181036000830152612b838161284d565b9050919050565b60006020820190508181036000830152612ba381612870565b9050919050565b6000602082019050612bbf6000830184612893565b92915050565b6000606082019050612bda6000830186612893565b612be7602083018561255c565b8181036040830152612bf981846125b3565b9050949350505050565b6000612c0d612c1e565b9050612c198282612e70565b919050565b6000604051905090565b600067ffffffffffffffff821115612c4357612c42612fa8565b5b612c4c82612fd7565b9050602081019050919050565b600067ffffffffffffffff821115612c7457612c73612fa8565b5b612c7d82612fd7565b9050602081019050919050565b600081519050919050565b600081519050919050565b600082825260208201905092915050565b600082825260208201905092915050565b600081905092915050565b6000612cd882612df2565b9150612ce383612df2565b9250827fffffffffffffffffffffffffffffffffffffffffffffffffffffffffffffffff03821115612d1857612d17612f1b565b5b828201905092915050565b6000612d2e82612df2565b9150612d3983612df2565b925082612d4957612d48612f4a565b5b828204905092915050565b6000612d5f82612df2565b9150612d6a83612df2565b925082821015612d7d57612d7c612f1b565b5b828203905092915050565b6000612d9382612dd2565b9050919050565b60008115159050919050565b60007fffffffff0000000000000000000000000000000000000000000000000000000082169050919050565b600073ffffffffffffffffffffffffffffffffffffffff82169050919050565b6000819050919050565b82818337600083830152505050565b60005b83811015612e29578082015181840152602081019050612e0e565b83811115612e38576000848401525b50505050565b60006002820490506001821680612e5657607f821691505b60208210811415612e6a57612e69612f79565b5b50919050565b612e7982612fd7565b810181811067ffffffffffffffff82111715612e9857612e97612fa8565b5b80604052505050565b6000612eac82612df2565b91507fffffffffffffffffffffffffffffffffffffffffffffffffffffffffffffffff821415612edf57612ede612f1b565b5b600182019050919050565b6000612ef582612df2565b9150612f0083612df2565b925082612f1057612f0f612f4a565b5b828206905092915050565b7f4e487b7100000000000000000000000000000000000000000000000000000000600052601160045260246000fd5b7f4e487b7100000000000000000000000000000000000000000000000000000000600052601260045260246000fd5b7f4e487b7100000000000000000000000000000000000000000000000000000000600052602260045260246000fd5b7f4e487b7100000000000000000000000000000000000000000000000000000000600052604160045260246000fd5b6000601f19601f8301169050919050565b7f4552433732313a207472616e7366657220746f206e6f6e20455243373231526560008201527f63656976657220696d706c656d656e7465720000000000000000000000000000602082015250565b7f4f776e61626c653a206e6577206f776e657220697320746865207a65726f206160008201527f6464726573730000000000000000000000000000000000000000000000000000602082015250565b7f4552433732313a207472616e736665722066726f6d20696e636f72726563742060008201527f6f776e6572000000000000000000000000000000000000000000000000000000602082015250565b7f4552433732313a20746f6b656e20616c7265616479206d696e74656400000000600082015250565b7f4552433732313a207472616e7366657220746f20746865207a65726f2061646460008201527f7265737300000000000000000000000000000000000000000000000000000000602082015250565b7f4552433732313a20617070726f766520746f2063616c6c657200000000000000600082015250565b7f4552433732313a206f70657261746f7220717565727920666f72206e6f6e657860008201527f697374656e7420746f6b656e0000000000000000000000000000000000000000602082015250565b7f4552433732313a20617070726f76652063616c6c6572206973206e6f74206f7760008201527f6e6572206e6f7220617070726f76656420666f7220616c6c0000000000000000602082015250565b7f4552433732313a2062616c616e636520717565727920666f7220746865207a6560008201527f726f206164647265737300000000000000000000000000000000000000000000602082015250565b7f4552433732313a206f776e657220717565727920666f72206e6f6e657869737460008201527f656e7420746f6b656e0000000000000000000000000000000000000000000000602082015250565b7f45524337323155524953746f726167653a2055524920736574206f66206e6f6e60008201527f6578697374656e7420746f6b656e000000000000000000000000000000000000602082015250565b7f4552433732313a206d696e7420746f20746865207a65726f2061646472657373600082015250565b7f45524337323155524953746f726167653a2055524920717565727920666f722060008201527f6e6f6e6578697374656e7420746f6b656e000000000000000000000000000000602082015250565b7f4552433732313a20617070726f76656420717565727920666f72206e6f6e657860008201527f697374656e7420746f6b656e0000000000000000000000000000000000000000602082015250565b7f4f776e61626c653a2063616c6c6572206973206e6f7420746865206f776e6572600082015250565b7f4552433732314d657461646174613a2055524920717565727920666f72206e6f60008201527f6e6578697374656e7420746f6b656e0000000000000000000000000000000000602082015250565b7f4552433732313a20617070726f76616c20746f2063757272656e74206f776e6560008201527f7200000000000000000000000000000000000000000000000000000000000000602082015250565b7f4552433732313a207472616e736665722063616c6c6572206973206e6f74206f60008201527f776e6572206e6f7220617070726f766564000000000000000000000000000000602082015250565b6134e781612d88565b81146134f257600080fd5b50565b6134fe81612d9a565b811461350957600080fd5b50565b61351581612da6565b811461352057600080fd5b50565b61352c81612df2565b811461353757600080fd5b5056fea26469706673582212201fc81ad26cbf2d34574ac44efa3b13e8db46402f4177fa17a38182099469c2d064736f6c63430008010033",
  "linkReferences": {},
  "deployedLinkReferences": {}
}